{
  "contractName": "HRC721Crowdsale",
  "abi": [
    {
      "inputs": [
        {
          "internalType": "contract HRC721",
          "name": "_token",
          "type": "address"
        }
      ],
      "payable": false,
      "stateMutability": "nonpayable",
      "type": "constructor"
    },
    {
      "anonymous": false,
      "inputs": [
        {
          "indexed": true,
          "internalType": "address",
          "name": "account",
          "type": "address"
        }
      ],
      "name": "MinterAdded",
      "type": "event"
    },
    {
      "anonymous": false,
      "inputs": [
        {
          "indexed": true,
          "internalType": "address",
          "name": "account",
          "type": "address"
        }
      ],
      "name": "MinterRemoved",
      "type": "event"
    },
    {
      "constant": false,
      "inputs": [
        {
          "internalType": "address",
          "name": "account",
          "type": "address"
        }
      ],
      "name": "addMinter",
      "outputs": [],
      "payable": false,
      "stateMutability": "nonpayable",
      "type": "function"
    },
    {
      "constant": true,
      "inputs": [
        {
          "internalType": "address",
          "name": "",
          "type": "address"
        }
      ],
      "name": "contributions",
      "outputs": [
        {
          "internalType": "uint256",
          "name": "",
          "type": "uint256"
        }
      ],
      "payable": false,
      "stateMutability": "view",
      "type": "function"
    },
    {
      "constant": true,
      "inputs": [
        {
          "internalType": "address",
          "name": "account",
          "type": "address"
        }
      ],
      "name": "isMinter",
      "outputs": [
        {
          "internalType": "bool",
          "name": "",
          "type": "bool"
        }
      ],
      "payable": false,
      "stateMutability": "view",
      "type": "function"
    },
    {
      "constant": true,
      "inputs": [],
      "name": "raised",
      "outputs": [
        {
          "internalType": "uint256",
          "name": "",
          "type": "uint256"
        }
      ],
      "payable": false,
      "stateMutability": "view",
      "type": "function"
    },
    {
      "constant": false,
      "inputs": [],
      "name": "renounceMinter",
      "outputs": [],
      "payable": false,
      "stateMutability": "nonpayable",
      "type": "function"
    },
    {
      "constant": true,
      "inputs": [],
      "name": "totalItems",
      "outputs": [
        {
          "internalType": "uint256",
          "name": "",
          "type": "uint256"
        }
      ],
      "payable": false,
      "stateMutability": "view",
      "type": "function"
    },
    {
      "constant": false,
      "inputs": [
        {
          "internalType": "address",
          "name": "to",
          "type": "address"
        },
        {
          "internalType": "uint256",
          "name": "index",
          "type": "uint256"
        }
      ],
      "name": "purchase",
      "outputs": [],
      "payable": true,
      "stateMutability": "payable",
      "type": "function"
    },
    {
      "constant": false,
      "inputs": [
        {
          "internalType": "address",
          "name": "to",
          "type": "address"
        },
        {
          "internalType": "uint256",
          "name": "index",
          "type": "uint256"
        }
      ],
      "name": "mint",
      "outputs": [],
      "payable": false,
      "stateMutability": "nonpayable",
      "type": "function"
    },
    {
      "constant": false,
      "inputs": [
        {
          "internalType": "uint8",
          "name": "limit",
          "type": "uint8"
        },
        {
          "internalType": "uint128",
          "name": "price",
          "type": "uint128"
        },
        {
          "internalType": "string",
          "name": "url",
          "type": "string"
        }
      ],
      "name": "addItem",
      "outputs": [],
      "payable": false,
      "stateMutability": "nonpayable",
      "type": "function"
    },
    {
      "constant": true,
      "inputs": [
        {
          "internalType": "uint256",
          "name": "index",
          "type": "uint256"
        }
      ],
      "name": "getMinted",
      "outputs": [
        {
          "internalType": "uint8",
          "name": "",
          "type": "uint8"
        }
      ],
      "payable": false,
      "stateMutability": "view",
      "type": "function"
    },
    {
      "constant": true,
      "inputs": [
        {
          "internalType": "uint256",
          "name": "index",
          "type": "uint256"
        }
      ],
      "name": "getLimit",
      "outputs": [
        {
          "internalType": "uint8",
          "name": "",
          "type": "uint8"
        }
      ],
      "payable": false,
      "stateMutability": "view",
      "type": "function"
    },
    {
      "constant": true,
      "inputs": [
        {
          "internalType": "uint256",
          "name": "index",
          "type": "uint256"
        }
      ],
      "name": "getPrice",
      "outputs": [
        {
          "internalType": "uint128",
          "name": "",
          "type": "uint128"
        }
      ],
      "payable": false,
      "stateMutability": "view",
      "type": "function"
    },
    {
      "constant": true,
      "inputs": [
        {
          "internalType": "uint256",
          "name": "index",
          "type": "uint256"
        }
      ],
      "name": "getUrl",
      "outputs": [
        {
          "internalType": "string",
          "name": "",
          "type": "string"
        }
      ],
      "payable": false,
      "stateMutability": "view",
      "type": "function"
    },
    {
      "constant": true,
      "inputs": [
        {
          "internalType": "uint256",
          "name": "tokenId",
          "type": "uint256"
        }
      ],
      "name": "getTokenData",
      "outputs": [
        {
          "internalType": "string",
          "name": "",
          "type": "string"
        }
      ],
      "payable": false,
      "stateMutability": "view",
      "type": "function"
    }
  ],
  "bytecode": "0x60806040523480156200001157600080fd5b50604051620019a3380380620019a3833981810160405260208110156200003757600080fd5b8101908080519060200190929190505050620000686200005c620000c960201b60201c565b620000d160201b60201c565b60018060006101000a81548160ff021916908315150217905550806001806101000a81548173ffffffffffffffffffffffffffffffffffffffff021916908373ffffffffffffffffffffffffffffffffffffffff16021790555050620002f6565b600033905090565b620000ec8160006200013260201b620013431790919060201c565b8073ffffffffffffffffffffffffffffffffffffffff167f6ae172837ea30b801fbfcdd4108aa1d5bf8ff775444fd70256b44e6bf3dfc3f660405160405180910390a250565b6200014482826200021660201b60201c565b15620001b8576040517f08c379a000000000000000000000000000000000000000000000000000000000815260040180806020018281038252601f8152602001807f526f6c65733a206163636f756e7420616c72656164792068617320726f6c650081525060200191505060405180910390fd5b60018260000160008373ffffffffffffffffffffffffffffffffffffffff1673ffffffffffffffffffffffffffffffffffffffff16815260200190815260200160002060006101000a81548160ff0219169083151502179055505050565b60008073ffffffffffffffffffffffffffffffffffffffff168273ffffffffffffffffffffffffffffffffffffffff1614156200029f576040517f08c379a0000000000000000000000000000000000000000000000000000000008152600401808060200182810382526022815260200180620019816022913960400191505060405180910390fd5b8260000160008373ffffffffffffffffffffffffffffffffffffffff1673ffffffffffffffffffffffffffffffffffffffff16815260200190815260200160002060009054906101000a900460ff16905092915050565b61167b80620003066000396000f3fe6080604052600436106100dd5760003560e01c8063983b2d561161007f578063b09afec111610059578063b09afec11461044a578063e7572230146104fe578063f0ea4bfc14610571578063f5370e171461059c576100dd565b8063983b2d561461037957806398650275146103ca578063aa271e1a146103e1576100dd565b806342e94c90116100bb57806342e94c90146101bd578063827d63201461022257806385604d89146102775780638de932221461032b576100dd565b80631a9e379f146100e25780632799276d1461013757806340c10f1914610162575b600080fd5b3480156100ee57600080fd5b5061011b6004803603602081101561010557600080fd5b810190808035906020019092919050505061068d565b604051808260ff1660ff16815260200191505060405180910390f35b34801561014357600080fd5b5061014c6106c2565b6040518082815260200191505060405180910390f35b34801561016e57600080fd5b506101bb6004803603604081101561018557600080fd5b81019080803573ffffffffffffffffffffffffffffffffffffffff169060200190929190803590602001909291905050506106c8565b005b3480156101c957600080fd5b5061020c600480360360208110156101e057600080fd5b81019080803573ffffffffffffffffffffffffffffffffffffffff16906020019092919050505061073b565b6040518082815260200191505060405180910390f35b34801561022e57600080fd5b5061025b6004803603602081101561024557600080fd5b8101908080359060200190929190505050610753565b604051808260ff1660ff16815260200191505060405180910390f35b34801561028357600080fd5b506102b06004803603602081101561029a57600080fd5b8101908080359060200190929190505050610788565b6040518080602001828103825283818151815260200191508051906020019080838360005b838110156102f05780820151818401526020810190506102d5565b50505050905090810190601f16801561031d5780820380516001836020036101000a031916815260200191505b509250505060405180910390f35b6103776004803603604081101561034157600080fd5b81019080803573ffffffffffffffffffffffffffffffffffffffff16906020019092919080359060200190929190505050610848565b005b34801561038557600080fd5b506103c86004803603602081101561039c57600080fd5b81019080803573ffffffffffffffffffffffffffffffffffffffff169060200190929190505050610b5a565b005b3480156103d657600080fd5b506103df610bcb565b005b3480156103ed57600080fd5b506104306004803603602081101561040457600080fd5b81019080803573ffffffffffffffffffffffffffffffffffffffff169060200190929190505050610bdd565b604051808215151515815260200191505060405180910390f35b34801561045657600080fd5b506104836004803603602081101561046d57600080fd5b8101908080359060200190929190505050610bfa565b6040518080602001828103825283818151815260200191508051906020019080838360005b838110156104c35780820151818401526020810190506104a8565b50505050905090810190601f1680156104f05780820380516001836020036101000a031916815260200191505b509250505060405180910390f35b34801561050a57600080fd5b506105376004803603602081101561052157600080fd5b8101908080359060200190929190505050610d66565b60405180826fffffffffffffffffffffffffffffffff166fffffffffffffffffffffffffffffffff16815260200191505060405180910390f35b34801561057d57600080fd5b50610586610daa565b6040518082815260200191505060405180910390f35b3480156105a857600080fd5b5061068b600480360360608110156105bf57600080fd5b81019080803560ff16906020019092919080356fffffffffffffffffffffffffffffffff1690602001909291908035906020019064010000000081111561060557600080fd5b82018360208201111561061757600080fd5b8035906020019184600183028401116401000000008311171561063957600080fd5b91908080601f016020809104026020016040519081016040528093929190818152602001838380828437600081840152601f19601f820116905080830192505050505050509192919290505050610db0565b005b60006004828154811061069c57fe5b906000526020600020906003020160000160009054906101000a900460ff169050919050565b60055481565b6106d86106d3610f32565b610bdd565b61072d576040517f08c379a00000000000000000000000000000000000000000000000000000000081526004018080602001828103825260308152602001806115816030913960400191505060405180910390fd5b6107378282610f3a565b5050565b60026020528060005260406000206000915090505481565b60006004828154811061076257fe5b906000526020600020906003020160000160019054906101000a900460ff169050919050565b60606004828154811061079757fe5b90600052602060002090600302016002018054600181600116156101000203166002900480601f01602080910402602001604051908101604052809291908181526020018280546001816001161561010002031660029004801561083c5780601f106108115761010080835404028352916020019161083c565b820191906000526020600020905b81548152906001019060200180831161081f57829003601f168201915b50505050509050919050565b600160009054906101000a900460ff166108ca576040517f08c379a000000000000000000000000000000000000000000000000000000000815260040180806020018281038252601f8152602001807f5265656e7472616e637947756172643a207265656e7472616e742063616c6c0081525060200191505060405180910390fd5b6000600160006101000a81548160ff0219169083151502179055506000349050600073ffffffffffffffffffffffffffffffffffffffff168373ffffffffffffffffffffffffffffffffffffffff161415610970576040517f08c379a000000000000000000000000000000000000000000000000000000000815260040180806020018281038252602a81526020018061161d602a913960400191505060405180910390fd5b60008114156109e7576040517f08c379a00000000000000000000000000000000000000000000000000000000081526004018080602001828103825260198152602001807f43726f776473616c653a20776569416d6f756e7420697320300000000000000081525060200191505060405180910390fd5b6000600483815481106109f657fe5b906000526020600020906003020160000160029054906101000a90046fffffffffffffffffffffffffffffffff169050806fffffffffffffffffffffffffffffffff168214610a90576040517f08c379a00000000000000000000000000000000000000000000000000000000081526004018080602001828103825260298152602001806115d26029913960400191505060405180910390fd5b610a9a8484610f3a565b610aaf8260035461112990919063ffffffff16565b60038190555060048381548110610ac257fe5b906000526020600020906003020160010160009054906101000a900473ffffffffffffffffffffffffffffffffffffffff1673ffffffffffffffffffffffffffffffffffffffff166108fc349081150290604051600060405180830381858888f19350505050158015610b39573d6000803e3d6000fd5b50505060018060006101000a81548160ff0219169083151502179055505050565b610b6a610b65610f32565b610bdd565b610bbf576040517f08c379a00000000000000000000000000000000000000000000000000000000081526004018080602001828103825260308152602001806115816030913960400191505060405180910390fd5b610bc8816111b1565b50565b610bdb610bd6610f32565b61120b565b565b6000610bf382600061126590919063ffffffff16565b9050919050565b606060046001809054906101000a900473ffffffffffffffffffffffffffffffffffffffff1673ffffffffffffffffffffffffffffffffffffffff1663f2777710846040518263ffffffff1660e01b81526004018082815260200191505060206040518083038186803b158015610c7057600080fd5b505afa158015610c84573d6000803e3d6000fd5b505050506040513d6020811015610c9a57600080fd5b810190808051906020019092919050505081548110610cb557fe5b90600052602060002090600302016002018054600181600116156101000203166002900480601f016020809104026020016040519081016040528092919081815260200182805460018160011615610100020316600290048015610d5a5780601f10610d2f57610100808354040283529160200191610d5a565b820191906000526020600020905b815481529060010190602001808311610d3d57829003601f168201915b50505050509050919050565b600060048281548110610d7557fe5b906000526020600020906003020160000160029054906101000a90046fffffffffffffffffffffffffffffffff169050919050565b60035481565b60046040518060a00160405280600060ff1681526020018560ff168152602001846fffffffffffffffffffffffffffffffff1681526020013373ffffffffffffffffffffffffffffffffffffffff168152602001838152509080600181540180825580915050906001820390600052602060002090600302016000909192909190915060008201518160000160006101000a81548160ff021916908360ff16021790555060208201518160000160016101000a81548160ff021916908360ff16021790555060408201518160000160026101000a8154816fffffffffffffffffffffffffffffffff02191690836fffffffffffffffffffffffffffffffff16021790555060608201518160010160006101000a81548173ffffffffffffffffffffffffffffffffffffffff021916908373ffffffffffffffffffffffffffffffffffffffff1602179055506080820151816002019080519060200190610f179291906114db565b50505050600560008154809291906001019190505550505050565b600033905090565b600060048281548110610f4957fe5b906000526020600020906003020160000160009054906101000a900460ff169050600060048381548110610f7957fe5b906000526020600020906003020160000160019054906101000a900460ff1690508060ff168260ff1610611015576040517f08c379a000000000000000000000000000000000000000000000000000000000815260040180806020018281038252601d8152602001807f43726f776473616c653a206974656d206c696d6974207265616368656400000081525060200191505060405180910390fd5b6004838154811061102257fe5b9060005260206000209060030201600001600081819054906101000a900460ff168092919060010191906101000a81548160ff021916908360ff160217905550506001809054906101000a900473ffffffffffffffffffffffffffffffffffffffff1673ffffffffffffffffffffffffffffffffffffffff16639d2b53f085856040518363ffffffff1660e01b8152600401808373ffffffffffffffffffffffffffffffffffffffff1673ffffffffffffffffffffffffffffffffffffffff16815260200182815260200192505050600060405180830381600087803b15801561110b57600080fd5b505af115801561111f573d6000803e3d6000fd5b5050505050505050565b6000808284019050838110156111a7576040517f08c379a000000000000000000000000000000000000000000000000000000000815260040180806020018281038252601b8152602001807f536166654d6174683a206164646974696f6e206f766572666c6f77000000000081525060200191505060405180910390fd5b8091505092915050565b6111c581600061134390919063ffffffff16565b8073ffffffffffffffffffffffffffffffffffffffff167f6ae172837ea30b801fbfcdd4108aa1d5bf8ff775444fd70256b44e6bf3dfc3f660405160405180910390a250565b61121f81600061141e90919063ffffffff16565b8073ffffffffffffffffffffffffffffffffffffffff167fe94479a9f7e1952cc78f2d6baab678adc1b772d936c6583def489e524cb6669260405160405180910390a250565b60008073ffffffffffffffffffffffffffffffffffffffff168273ffffffffffffffffffffffffffffffffffffffff1614156112ec576040517f08c379a00000000000000000000000000000000000000000000000000000000081526004018080602001828103825260228152602001806115fb6022913960400191505060405180910390fd5b8260000160008373ffffffffffffffffffffffffffffffffffffffff1673ffffffffffffffffffffffffffffffffffffffff16815260200190815260200160002060009054906101000a900460ff16905092915050565b61134d8282611265565b156113c0576040517f08c379a000000000000000000000000000000000000000000000000000000000815260040180806020018281038252601f8152602001807f526f6c65733a206163636f756e7420616c72656164792068617320726f6c650081525060200191505060405180910390fd5b60018260000160008373ffffffffffffffffffffffffffffffffffffffff1673ffffffffffffffffffffffffffffffffffffffff16815260200190815260200160002060006101000a81548160ff0219169083151502179055505050565b6114288282611265565b61147d576040517f08c379a00000000000000000000000000000000000000000000000000000000081526004018080602001828103825260218152602001806115b16021913960400191505060405180910390fd5b60008260000160008373ffffffffffffffffffffffffffffffffffffffff1673ffffffffffffffffffffffffffffffffffffffff16815260200190815260200160002060006101000a81548160ff0219169083151502179055505050565b828054600181600116156101000203166002900490600052602060002090601f016020900481019282601f1061151c57805160ff191683800117855561154a565b8280016001018555821561154a579182015b8281111561154957825182559160200191906001019061152e565b5b509050611557919061155b565b5090565b61157d91905b80821115611579576000816000905550600101611561565b5090565b9056fe4d696e746572526f6c653a2063616c6c657220646f6573206e6f74206861766520746865204d696e74657220726f6c65526f6c65733a206163636f756e7420646f6573206e6f74206861766520726f6c6543726f776473616c653a20776569416d6f756e7420646f6573206e6f7420657175616c207072696365526f6c65733a206163636f756e7420697320746865207a65726f206164647265737343726f776473616c653a2062656e656669636961727920697320746865207a65726f2061646472657373a265627a7a72315820dc95f141d316aba18286a454ce9cc0ffea52f83f6877ef193c86e235cd1eeee164736f6c63430005110032526f6c65733a206163636f756e7420697320746865207a65726f2061646472657373",
  "source": "pragma solidity >=0.4.24 <0.6.0;\n\nimport \"./HRC721.sol\";\nimport \"@openzeppelin/contracts/math/SafeMath.sol\";\nimport \"@openzeppelin/contracts/utils/ReentrancyGuard.sol\";\nimport \"@openzeppelin/contracts/access/roles/MinterRole.sol\";\n\ncontract HRC721Crowdsale is MinterRole, ReentrancyGuard {\n\n    using SafeMath for uint256;\n\t//721 tokens\n\tHRC721 token;\n\t//sales\n\tmapping(address => uint256) public contributions;\n\tuint256 public raised;\n\t//inventory\n\tstruct Item {\n\t\t//tight pack 256bits\n        uint8 minted;\n\t\tuint8 limit;\n\t\tuint128 price;\n\t\t//end tight pack\n\t\taddress payable owner;\n\t\tstring url;\n    }\n\tItem[] private items;\n\tuint256 public totalItems;\n\n\tconstructor(HRC721 _token) public {\n\t\ttoken = _token;\n\t}\n\n\t//sales\n    function purchase(address to, uint256 index) public nonReentrant payable {\n        uint256 weiAmount = msg.value;\n\t\trequire(to != address(0), \"Crowdsale: beneficiary is the zero address\");\n        require(weiAmount != 0, \"Crowdsale: weiAmount is 0\");\n\t\tuint128 price = items[index].price;\n        require(weiAmount == price, \"Crowdsale: weiAmount does not equal price\");\n\t\t_mint(to, index);\n        raised = raised.add(weiAmount);\n\t\t//transfer funds to owner\n        items[index].owner.transfer(msg.value);\n    }\n\tfunction mint(address to, uint256 index) public onlyMinter {\n\t\t_mint(to, index);\n\t}\n\tfunction _mint(address to, uint256 index) internal {\n\t\tuint8 minted = items[index].minted;\n\t\tuint8 limit = items[index].limit;\n\t\trequire(minted < limit, \"Crowdsale: item limit reached\");\n        items[index].minted++;\n\t\ttoken.mintWithIndex(to, index);\n\t}\n\n\t//inventory management\n\tfunction addItem(uint8 limit, uint128 price, string memory url) public {\n\t\titems.push(Item(0, limit, price, msg.sender, url));\n\t\ttotalItems++;\n\t}\n\n\t//getting data\n\tfunction getMinted(uint256 index) public view returns (uint8) {\n\t\treturn items[index].minted;\n\t}\n\tfunction getLimit(uint256 index) public view returns (uint8) {\n\t\treturn items[index].limit;\n\t}\n\tfunction getPrice(uint256 index) public view returns (uint128) {\n\t\treturn items[index].price;\n\t}\n\tfunction getUrl(uint256 index) public view returns (string memory) {\n\t\treturn items[index].url;\n\t}\n\tfunction getTokenData(uint256 tokenId) public view returns (string memory) {\n\t\treturn items[token.getItemIndex(tokenId)].url;\n\t}\n\n}",
  "sourcePath": "C:/Users/aziz/Desktop/NFT token/Harmony NFTMap/contracts/HRC721Crowdsale.sol",
  "compiler": {
    "name": "solc",
    "version": "0.5.17+commit.d19bba13.Emscripten.clang"
  },
  "schemaVersion": "3.3.2",
  "updatedAt": "2021-07-04T16:38:41.042Z",
  "devdoc": {
    "methods": {}
  },
  "userdoc": {
    "methods": {}
  }
}